{
  "_format": "hh-sol-artifact-1",
  "contractName": "keyNFT",
  "sourceName": "contracts/KeyNFT.sol",
  "abi": [
    {
      "inputs": [],
      "stateMutability": "nonpayable",
      "type": "constructor"
    },
    {
      "inputs": [],
      "name": "NonTransferable",
      "type": "error"
    },
    {
      "anonymous": false,
      "inputs": [
        {
          "indexed": true,
          "internalType": "address",
          "name": "account",
          "type": "address"
        },
        {
          "indexed": true,
          "internalType": "address",
          "name": "operator",
          "type": "address"
        },
        {
          "indexed": false,
          "internalType": "bool",
          "name": "approved",
          "type": "bool"
        }
      ],
      "name": "ApprovalForAll",
      "type": "event"
    },
    {
      "anonymous": false,
      "inputs": [
        {
          "indexed": true,
          "internalType": "bytes32",
          "name": "role",
          "type": "bytes32"
        },
        {
          "indexed": true,
          "internalType": "bytes32",
          "name": "previousAdminRole",
          "type": "bytes32"
        },
        {
          "indexed": true,
          "internalType": "bytes32",
          "name": "newAdminRole",
          "type": "bytes32"
        }
      ],
      "name": "RoleAdminChanged",
      "type": "event"
    },
    {
      "anonymous": false,
      "inputs": [
        {
          "indexed": true,
          "internalType": "bytes32",
          "name": "role",
          "type": "bytes32"
        },
        {
          "indexed": true,
          "internalType": "address",
          "name": "account",
          "type": "address"
        },
        {
          "indexed": true,
          "internalType": "address",
          "name": "sender",
          "type": "address"
        }
      ],
      "name": "RoleGranted",
      "type": "event"
    },
    {
      "anonymous": false,
      "inputs": [
        {
          "indexed": true,
          "internalType": "bytes32",
          "name": "role",
          "type": "bytes32"
        },
        {
          "indexed": true,
          "internalType": "address",
          "name": "account",
          "type": "address"
        },
        {
          "indexed": true,
          "internalType": "address",
          "name": "sender",
          "type": "address"
        }
      ],
      "name": "RoleRevoked",
      "type": "event"
    },
    {
      "anonymous": false,
      "inputs": [
        {
          "indexed": true,
          "internalType": "address",
          "name": "operator",
          "type": "address"
        },
        {
          "indexed": true,
          "internalType": "address",
          "name": "from",
          "type": "address"
        },
        {
          "indexed": true,
          "internalType": "address",
          "name": "to",
          "type": "address"
        },
        {
          "indexed": false,
          "internalType": "uint256[]",
          "name": "ids",
          "type": "uint256[]"
        },
        {
          "indexed": false,
          "internalType": "uint256[]",
          "name": "values",
          "type": "uint256[]"
        }
      ],
      "name": "TransferBatch",
      "type": "event"
    },
    {
      "anonymous": false,
      "inputs": [
        {
          "indexed": true,
          "internalType": "address",
          "name": "operator",
          "type": "address"
        },
        {
          "indexed": true,
          "internalType": "address",
          "name": "from",
          "type": "address"
        },
        {
          "indexed": true,
          "internalType": "address",
          "name": "to",
          "type": "address"
        },
        {
          "indexed": false,
          "internalType": "uint256",
          "name": "id",
          "type": "uint256"
        },
        {
          "indexed": false,
          "internalType": "uint256",
          "name": "value",
          "type": "uint256"
        }
      ],
      "name": "TransferSingle",
      "type": "event"
    },
    {
      "anonymous": false,
      "inputs": [
        {
          "indexed": false,
          "internalType": "string",
          "name": "value",
          "type": "string"
        },
        {
          "indexed": true,
          "internalType": "uint256",
          "name": "id",
          "type": "uint256"
        }
      ],
      "name": "URI",
      "type": "event"
    },
    {
      "inputs": [],
      "name": "DEFAULT_ADMIN_ROLE",
      "outputs": [
        {
          "internalType": "bytes32",
          "name": "",
          "type": "bytes32"
        }
      ],
      "stateMutability": "view",
      "type": "function"
    },
    {
      "inputs": [],
      "name": "MINTER_ROLE",
      "outputs": [
        {
          "internalType": "bytes32",
          "name": "",
          "type": "bytes32"
        }
      ],
      "stateMutability": "view",
      "type": "function"
    },
    {
      "inputs": [],
      "name": "URI_SETTER_ROLE",
      "outputs": [
        {
          "internalType": "bytes32",
          "name": "",
          "type": "bytes32"
        }
      ],
      "stateMutability": "view",
      "type": "function"
    },
    {
      "inputs": [
        {
          "internalType": "address",
          "name": "account",
          "type": "address"
        },
        {
          "internalType": "uint256",
          "name": "id",
          "type": "uint256"
        }
      ],
      "name": "balanceOf",
      "outputs": [
        {
          "internalType": "uint256",
          "name": "",
          "type": "uint256"
        }
      ],
      "stateMutability": "view",
      "type": "function"
    },
    {
      "inputs": [
        {
          "internalType": "address[]",
          "name": "accounts",
          "type": "address[]"
        },
        {
          "internalType": "uint256[]",
          "name": "ids",
          "type": "uint256[]"
        }
      ],
      "name": "balanceOfBatch",
      "outputs": [
        {
          "internalType": "uint256[]",
          "name": "",
          "type": "uint256[]"
        }
      ],
      "stateMutability": "view",
      "type": "function"
    },
    {
      "inputs": [
        {
          "internalType": "address",
          "name": "to",
          "type": "address"
        },
        {
          "internalType": "uint256[]",
          "name": "ids",
          "type": "uint256[]"
        },
        {
          "internalType": "uint256[]",
          "name": "amounts",
          "type": "uint256[]"
        },
        {
          "internalType": "bytes",
          "name": "data",
          "type": "bytes"
        }
      ],
      "name": "batchMint",
      "outputs": [],
      "stateMutability": "nonpayable",
      "type": "function"
    },
    {
      "inputs": [
        {
          "internalType": "bytes32",
          "name": "role",
          "type": "bytes32"
        }
      ],
      "name": "getRoleAdmin",
      "outputs": [
        {
          "internalType": "bytes32",
          "name": "",
          "type": "bytes32"
        }
      ],
      "stateMutability": "view",
      "type": "function"
    },
    {
      "inputs": [
        {
          "internalType": "bytes32",
          "name": "role",
          "type": "bytes32"
        },
        {
          "internalType": "address",
          "name": "account",
          "type": "address"
        }
      ],
      "name": "grantRole",
      "outputs": [],
      "stateMutability": "nonpayable",
      "type": "function"
    },
    {
      "inputs": [
        {
          "internalType": "bytes32",
          "name": "role",
          "type": "bytes32"
        },
        {
          "internalType": "address",
          "name": "account",
          "type": "address"
        }
      ],
      "name": "hasRole",
      "outputs": [
        {
          "internalType": "bool",
          "name": "",
          "type": "bool"
        }
      ],
      "stateMutability": "view",
      "type": "function"
    },
    {
      "inputs": [
        {
          "internalType": "address",
          "name": "account",
          "type": "address"
        },
        {
          "internalType": "address",
          "name": "operator",
          "type": "address"
        }
      ],
      "name": "isApprovedForAll",
      "outputs": [
        {
          "internalType": "bool",
          "name": "",
          "type": "bool"
        }
      ],
      "stateMutability": "view",
      "type": "function"
    },
    {
      "inputs": [
        {
          "internalType": "address",
          "name": "to",
          "type": "address"
        },
        {
          "internalType": "uint256",
          "name": "id",
          "type": "uint256"
        },
        {
          "internalType": "uint256",
          "name": "amount",
          "type": "uint256"
        },
        {
          "internalType": "bytes",
          "name": "data",
          "type": "bytes"
        }
      ],
      "name": "mint",
      "outputs": [],
      "stateMutability": "nonpayable",
      "type": "function"
    },
    {
      "inputs": [
        {
          "internalType": "bytes32",
          "name": "role",
          "type": "bytes32"
        },
        {
          "internalType": "address",
          "name": "account",
          "type": "address"
        }
      ],
      "name": "renounceRole",
      "outputs": [],
      "stateMutability": "nonpayable",
      "type": "function"
    },
    {
      "inputs": [
        {
          "internalType": "bytes32",
          "name": "role",
          "type": "bytes32"
        },
        {
          "internalType": "address",
          "name": "account",
          "type": "address"
        }
      ],
      "name": "revokeRole",
      "outputs": [],
      "stateMutability": "nonpayable",
      "type": "function"
    },
    {
      "inputs": [
        {
          "internalType": "address",
          "name": "from",
          "type": "address"
        },
        {
          "internalType": "address",
          "name": "to",
          "type": "address"
        },
        {
          "internalType": "uint256[]",
          "name": "ids",
          "type": "uint256[]"
        },
        {
          "internalType": "uint256[]",
          "name": "amounts",
          "type": "uint256[]"
        },
        {
          "internalType": "bytes",
          "name": "data",
          "type": "bytes"
        }
      ],
      "name": "safeBatchTransferFrom",
      "outputs": [],
      "stateMutability": "pure",
      "type": "function"
    },
    {
      "inputs": [
        {
          "internalType": "address",
          "name": "from",
          "type": "address"
        },
        {
          "internalType": "address",
          "name": "to",
          "type": "address"
        },
        {
          "internalType": "uint256",
          "name": "id",
          "type": "uint256"
        },
        {
          "internalType": "uint256",
          "name": "amount",
          "type": "uint256"
        },
        {
          "internalType": "bytes",
          "name": "data",
          "type": "bytes"
        }
      ],
      "name": "safeTransferFrom",
      "outputs": [],
      "stateMutability": "pure",
      "type": "function"
    },
    {
      "inputs": [
        {
          "internalType": "address",
          "name": "operator",
          "type": "address"
        },
        {
          "internalType": "bool",
          "name": "approved",
          "type": "bool"
        }
      ],
      "name": "setApprovalForAll",
      "outputs": [],
      "stateMutability": "nonpayable",
      "type": "function"
    },
    {
      "inputs": [
        {
          "internalType": "string",
          "name": "newuri",
          "type": "string"
        }
      ],
      "name": "setURI",
      "outputs": [],
      "stateMutability": "nonpayable",
      "type": "function"
    },
    {
      "inputs": [
        {
          "internalType": "bytes4",
          "name": "interfaceId",
          "type": "bytes4"
        }
      ],
      "name": "supportsInterface",
      "outputs": [
        {
          "internalType": "bool",
          "name": "",
          "type": "bool"
        }
      ],
      "stateMutability": "view",
      "type": "function"
    },
    {
      "inputs": [
        {
          "internalType": "uint256",
          "name": "",
          "type": "uint256"
        }
      ],
      "name": "uri",
      "outputs": [
        {
          "internalType": "string",
          "name": "",
          "type": "string"
        }
      ],
      "stateMutability": "view",
      "type": "function"
    }
  ],
  "bytecode": "0x60806040523480156200001157600080fd5b506040518060200160405280600081525062000033816200008160201b60201c565b50620000496000801b336200009660201b60201c565b6200007b7f7804d923f43a17d325d77e781528e0793b2edd9890ab45fc64efd7b4b427744c336200009660201b60201c565b6200055c565b806002908162000092919062000475565b5050565b620000a882826200018860201b60201c565b620001845760016003600084815260200190815260200160002060000160008373ffffffffffffffffffffffffffffffffffffffff1673ffffffffffffffffffffffffffffffffffffffff16815260200190815260200160002060006101000a81548160ff02191690831515021790555062000129620001f360201b60201c565b73ffffffffffffffffffffffffffffffffffffffff168173ffffffffffffffffffffffffffffffffffffffff16837f2f8788117e7eff1d82e926ec794901d17c78024a50270940304540a733656f0d60405160405180910390a45b5050565b60006003600084815260200190815260200160002060000160008373ffffffffffffffffffffffffffffffffffffffff1673ffffffffffffffffffffffffffffffffffffffff16815260200190815260200160002060009054906101000a900460ff16905092915050565b600033905090565b600081519050919050565b7f4e487b7100000000000000000000000000000000000000000000000000000000600052604160045260246000fd5b7f4e487b7100000000000000000000000000000000000000000000000000000000600052602260045260246000fd5b600060028204905060018216806200027d57607f821691505b60208210810362000293576200029262000235565b5b50919050565b60008190508160005260206000209050919050565b60006020601f8301049050919050565b600082821b905092915050565b600060088302620002fd7fffffffffffffffffffffffffffffffffffffffffffffffffffffffffffffffff82620002be565b620003098683620002be565b95508019841693508086168417925050509392505050565b6000819050919050565b6000819050919050565b600062000356620003506200034a8462000321565b6200032b565b62000321565b9050919050565b6000819050919050565b620003728362000335565b6200038a62000381826200035d565b848454620002cb565b825550505050565b600090565b620003a162000392565b620003ae81848462000367565b505050565b5b81811015620003d657620003ca60008262000397565b600181019050620003b4565b5050565b601f8211156200042557620003ef8162000299565b620003fa84620002ae565b810160208510156200040a578190505b620004226200041985620002ae565b830182620003b3565b50505b505050565b600082821c905092915050565b60006200044a600019846008026200042a565b1980831691505092915050565b600062000465838362000437565b9150826002028217905092915050565b6200048082620001fb565b67ffffffffffffffff8111156200049c576200049b62000206565b5b620004a8825462000264565b620004b5828285620003da565b600060209050601f831160018114620004ed5760008415620004d8578287015190505b620004e4858262000457565b86555062000554565b601f198416620004fd8662000299565b60005b82811015620005275784890151825560018201915060208501945060208101905062000500565b8683101562000547578489015162000543601f89168262000437565b8355505b6001600288020188555050505b505050505050565b6132ae806200056c6000396000f3fe608060405234801561001057600080fd5b50600436106101205760003560e01c8063731133e9116100ad578063b48ab8b611610071578063b48ab8b614610329578063d539139314610345578063d547741f14610363578063e985e9c51461037f578063f242432a146103af57610120565b8063731133e9146102855780637f345710146102a157806391d14854146102bf578063a217fddf146102ef578063a22cb4651461030d57610120565b8063248a9ca3116100f4578063248a9ca3146101d15780632eb2c2d6146102015780632f2ff15d1461021d57806336568abe146102395780634e1273f41461025557610120565b8062fdd58e1461012557806301ffc9a71461015557806302fe5305146101855780630e89341c146101a1575b600080fd5b61013f600480360381019061013a9190611aa1565b6103cb565b60405161014c9190611af0565b60405180910390f35b61016f600480360381019061016a9190611b63565b610493565b60405161017c9190611bab565b60405180910390f35b61019f600480360381019061019a9190611d0c565b6104a5565b005b6101bb60048036038101906101b69190611d55565b6104dc565b6040516101c89190611e01565b60405180910390f35b6101eb60048036038101906101e69190611e59565b610570565b6040516101f89190611e95565b60405180910390f35b61021b60048036038101906102169190612019565b610590565b005b610237600480360381019061023291906120e8565b6105c2565b005b610253600480360381019061024e91906120e8565b6105e3565b005b61026f600480360381019061026a91906121eb565b610666565b60405161027c9190612321565b60405180910390f35b61029f600480360381019061029a9190612343565b61077f565b005b6102a96107bc565b6040516102b69190611e95565b60405180910390f35b6102d960048036038101906102d491906120e8565b6107e0565b6040516102e69190611bab565b60405180910390f35b6102f761084b565b6040516103049190611e95565b60405180910390f35b610327600480360381019061032291906123f2565b610852565b005b610343600480360381019061033e9190612432565b610868565b005b61034d6108a5565b60405161035a9190611e95565b60405180910390f35b61037d600480360381019061037891906120e8565b6108c9565b005b610399600480360381019061039491906124ed565b6108ea565b6040516103a69190611bab565b60405180910390f35b6103c960048036038101906103c4919061252d565b61097e565b005b60008073ffffffffffffffffffffffffffffffffffffffff168373ffffffffffffffffffffffffffffffffffffffff160361043b576040517f08c379a000000000000000000000000000000000000000000000000000000000815260040161043290612636565b60405180910390fd5b60008083815260200190815260200160002060008473ffffffffffffffffffffffffffffffffffffffff1673ffffffffffffffffffffffffffffffffffffffff16815260200190815260200160002054905092915050565b600061049e826109b0565b9050919050565b7f7804d923f43a17d325d77e781528e0793b2edd9890ab45fc64efd7b4b427744c6104cf81610a2a565b6104d882610a3e565b5050565b6060600280546104eb90612685565b80601f016020809104026020016040519081016040528092919081815260200182805461051790612685565b80156105645780601f1061053957610100808354040283529160200191610564565b820191906000526020600020905b81548152906001019060200180831161054757829003601f168201915b50505050509050919050565b600060036000838152602001908152602001600020600101549050919050565b6040517f9cbe235700000000000000000000000000000000000000000000000000000000815260040160405180910390fd5b6105cb82610570565b6105d481610a2a565b6105de8383610a51565b505050565b6105eb610b32565b73ffffffffffffffffffffffffffffffffffffffff168173ffffffffffffffffffffffffffffffffffffffff1614610658576040517f08c379a000000000000000000000000000000000000000000000000000000000815260040161064f90612728565b60405180910390fd5b6106628282610b3a565b5050565b606081518351146106ac576040517f08c379a00000000000000000000000000000000000000000000000000000000081526004016106a3906127ba565b60405180910390fd5b6000835167ffffffffffffffff8111156106c9576106c8611be1565b5b6040519080825280602002602001820160405280156106f75781602001602082028036833780820191505090505b50905060005b84518110156107745761074485828151811061071c5761071b6127da565b5b6020026020010151858381518110610737576107366127da565b5b60200260200101516103cb565b828281518110610757576107566127da565b5b6020026020010181815250508061076d90612838565b90506106fd565b508091505092915050565b7f9f2df0fed2c77648de5860a4cc508cd0818c85b8b8a1ab4ceeef8d981c8956a66107a981610a2a565b6107b585858585610c1c565b5050505050565b7f7804d923f43a17d325d77e781528e0793b2edd9890ab45fc64efd7b4b427744c81565b60006003600084815260200190815260200160002060000160008373ffffffffffffffffffffffffffffffffffffffff1673ffffffffffffffffffffffffffffffffffffffff16815260200190815260200160002060009054906101000a900460ff16905092915050565b6000801b81565b61086461085d610b32565b8383610dcc565b5050565b7f9f2df0fed2c77648de5860a4cc508cd0818c85b8b8a1ab4ceeef8d981c8956a661089281610a2a565b61089e85858585610f38565b5050505050565b7f9f2df0fed2c77648de5860a4cc508cd0818c85b8b8a1ab4ceeef8d981c8956a681565b6108d282610570565b6108db81610a2a565b6108e58383610b3a565b505050565b6000600160008473ffffffffffffffffffffffffffffffffffffffff1673ffffffffffffffffffffffffffffffffffffffff16815260200190815260200160002060008373ffffffffffffffffffffffffffffffffffffffff1673ffffffffffffffffffffffffffffffffffffffff16815260200190815260200160002060009054906101000a900460ff16905092915050565b6040517f9cbe235700000000000000000000000000000000000000000000000000000000815260040160405180910390fd5b60007f7965db0b000000000000000000000000000000000000000000000000000000007bffffffffffffffffffffffffffffffffffffffffffffffffffffffff1916827bffffffffffffffffffffffffffffffffffffffffffffffffffffffff19161480610a235750610a2282611164565b5b9050919050565b610a3b81610a36610b32565b611246565b50565b8060029081610a4d9190612a2c565b5050565b610a5b82826107e0565b610b2e5760016003600084815260200190815260200160002060000160008373ffffffffffffffffffffffffffffffffffffffff1673ffffffffffffffffffffffffffffffffffffffff16815260200190815260200160002060006101000a81548160ff021916908315150217905550610ad3610b32565b73ffffffffffffffffffffffffffffffffffffffff168173ffffffffffffffffffffffffffffffffffffffff16837f2f8788117e7eff1d82e926ec794901d17c78024a50270940304540a733656f0d60405160405180910390a45b5050565b600033905090565b610b4482826107e0565b15610c185760006003600084815260200190815260200160002060000160008373ffffffffffffffffffffffffffffffffffffffff1673ffffffffffffffffffffffffffffffffffffffff16815260200190815260200160002060006101000a81548160ff021916908315150217905550610bbd610b32565b73ffffffffffffffffffffffffffffffffffffffff168173ffffffffffffffffffffffffffffffffffffffff16837ff6391f5c32d9c69d2a47ea670b442974b53935d1edc7fd64eb21e047a839171b60405160405180910390a45b5050565b600073ffffffffffffffffffffffffffffffffffffffff168473ffffffffffffffffffffffffffffffffffffffff1603610c8b576040517f08c379a0000000000000000000000000000000000000000000000000000000008152600401610c8290612b70565b60405180910390fd5b6000610c95610b32565b90506000610ca2856112cb565b90506000610caf856112cb565b9050610cc083600089858589611345565b8460008088815260200190815260200160002060008973ffffffffffffffffffffffffffffffffffffffff1673ffffffffffffffffffffffffffffffffffffffff1681526020019081526020016000206000828254610d1f9190612b90565b925050819055508673ffffffffffffffffffffffffffffffffffffffff16600073ffffffffffffffffffffffffffffffffffffffff168473ffffffffffffffffffffffffffffffffffffffff167fc3d58168c5ae7397731d063d5bbf3d657854427343f4c083240f7aacaa2d0f628989604051610d9d929190612bc4565b60405180910390a4610db48360008985858961134d565b610dc383600089898989611355565b50505050505050565b8173ffffffffffffffffffffffffffffffffffffffff168373ffffffffffffffffffffffffffffffffffffffff1603610e3a576040517f08c379a0000000000000000000000000000000000000000000000000000000008152600401610e3190612c5f565b60405180910390fd5b80600160008573ffffffffffffffffffffffffffffffffffffffff1673ffffffffffffffffffffffffffffffffffffffff16815260200190815260200160002060008473ffffffffffffffffffffffffffffffffffffffff1673ffffffffffffffffffffffffffffffffffffffff16815260200190815260200160002060006101000a81548160ff0219169083151502179055508173ffffffffffffffffffffffffffffffffffffffff168373ffffffffffffffffffffffffffffffffffffffff167f17307eab39ab6107e8899845ad3d59bd9653f200f220920489ca2b5937696c3183604051610f2b9190611bab565b60405180910390a3505050565b600073ffffffffffffffffffffffffffffffffffffffff168473ffffffffffffffffffffffffffffffffffffffff1603610fa7576040517f08c379a0000000000000000000000000000000000000000000000000000000008152600401610f9e90612b70565b60405180910390fd5b8151835114610feb576040517f08c379a0000000000000000000000000000000000000000000000000000000008152600401610fe290612cf1565b60405180910390fd5b6000610ff5610b32565b905061100681600087878787611345565b60005b84518110156110bf57838181518110611025576110246127da565b5b6020026020010151600080878481518110611043576110426127da565b5b6020026020010151815260200190815260200160002060008873ffffffffffffffffffffffffffffffffffffffff1673ffffffffffffffffffffffffffffffffffffffff16815260200190815260200160002060008282546110a59190612b90565b9250508190555080806110b790612838565b915050611009565b508473ffffffffffffffffffffffffffffffffffffffff16600073ffffffffffffffffffffffffffffffffffffffff168273ffffffffffffffffffffffffffffffffffffffff167f4a39dc06d4c0dbc64b70af90fd698a233a518aa5d07e595d983b8c0526c8f7fb8787604051611137929190612d11565b60405180910390a461114e8160008787878761134d565b61115d8160008787878761152c565b5050505050565b60007fd9b67a26000000000000000000000000000000000000000000000000000000007bffffffffffffffffffffffffffffffffffffffffffffffffffffffff1916827bffffffffffffffffffffffffffffffffffffffffffffffffffffffff1916148061122f57507f0e89341c000000000000000000000000000000000000000000000000000000007bffffffffffffffffffffffffffffffffffffffffffffffffffffffff1916827bffffffffffffffffffffffffffffffffffffffffffffffffffffffff1916145b8061123f575061123e82611703565b5b9050919050565b61125082826107e0565b6112c75761125d8161176d565b61126b8360001c602061179a565b60405160200161127c929190612e1c565b6040516020818303038152906040526040517f08c379a00000000000000000000000000000000000000000000000000000000081526004016112be9190611e01565b60405180910390fd5b5050565b60606000600167ffffffffffffffff8111156112ea576112e9611be1565b5b6040519080825280602002602001820160405280156113185781602001602082028036833780820191505090505b50905082816000815181106113305761132f6127da565b5b60200260200101818152505080915050919050565b505050505050565b505050505050565b6113748473ffffffffffffffffffffffffffffffffffffffff166119d6565b15611524578373ffffffffffffffffffffffffffffffffffffffff1663f23a6e6187878686866040518663ffffffff1660e01b81526004016113ba959493929190612eba565b6020604051808303816000875af19250505080156113f657506040513d601f19601f820116820180604052508101906113f39190612f29565b60015b61149b57611402612f63565b806308c379a00361145e5750611416612f85565b806114215750611460565b806040517f08c379a00000000000000000000000000000000000000000000000000000000081526004016114559190611e01565b60405180910390fd5b505b6040517f08c379a000000000000000000000000000000000000000000000000000000000815260040161149290613087565b60405180910390fd5b63f23a6e6160e01b7bffffffffffffffffffffffffffffffffffffffffffffffffffffffff1916817bffffffffffffffffffffffffffffffffffffffffffffffffffffffff191614611522576040517f08c379a000000000000000000000000000000000000000000000000000000000815260040161151990613119565b60405180910390fd5b505b505050505050565b61154b8473ffffffffffffffffffffffffffffffffffffffff166119d6565b156116fb578373ffffffffffffffffffffffffffffffffffffffff1663bc197c8187878686866040518663ffffffff1660e01b8152600401611591959493929190613139565b6020604051808303816000875af19250505080156115cd57506040513d601f19601f820116820180604052508101906115ca9190612f29565b60015b611672576115d9612f63565b806308c379a00361163557506115ed612f85565b806115f85750611637565b806040517f08c379a000000000000000000000000000000000000000000000000000000000815260040161162c9190611e01565b60405180910390fd5b505b6040517f08c379a000000000000000000000000000000000000000000000000000000000815260040161166990613087565b60405180910390fd5b63bc197c8160e01b7bffffffffffffffffffffffffffffffffffffffffffffffffffffffff1916817bffffffffffffffffffffffffffffffffffffffffffffffffffffffff1916146116f9576040517f08c379a00000000000000000000000000000000000000000000000000000000081526004016116f090613119565b60405180910390fd5b505b505050505050565b60007f01ffc9a7000000000000000000000000000000000000000000000000000000007bffffffffffffffffffffffffffffffffffffffffffffffffffffffff1916827bffffffffffffffffffffffffffffffffffffffffffffffffffffffff1916149050919050565b60606117938273ffffffffffffffffffffffffffffffffffffffff16601460ff1661179a565b9050919050565b6060600060028360026117ad91906131a1565b6117b79190612b90565b67ffffffffffffffff8111156117d0576117cf611be1565b5b6040519080825280601f01601f1916602001820160405280156118025781602001600182028036833780820191505090505b5090507f30000000000000000000000000000000000000000000000000000000000000008160008151811061183a576118396127da565b5b60200101907effffffffffffffffffffffffffffffffffffffffffffffffffffffffffffff1916908160001a9053507f78000000000000000000000000000000000000000000000000000000000000008160018151811061189e5761189d6127da565b5b60200101907effffffffffffffffffffffffffffffffffffffffffffffffffffffffffffff1916908160001a905350600060018460026118de91906131a1565b6118e89190612b90565b90505b6001811115611988577f3031323334353637383961626364656600000000000000000000000000000000600f86166010811061192a576119296127da565b5b1a60f81b828281518110611941576119406127da565b5b60200101907effffffffffffffffffffffffffffffffffffffffffffffffffffffffffffff1916908160001a905350600485901c945080611981906131e3565b90506118eb565b50600084146119cc576040517f08c379a00000000000000000000000000000000000000000000000000000000081526004016119c390613258565b60405180910390fd5b8091505092915050565b6000808273ffffffffffffffffffffffffffffffffffffffff163b119050919050565b6000604051905090565b600080fd5b600080fd5b600073ffffffffffffffffffffffffffffffffffffffff82169050919050565b6000611a3882611a0d565b9050919050565b611a4881611a2d565b8114611a5357600080fd5b50565b600081359050611a6581611a3f565b92915050565b6000819050919050565b611a7e81611a6b565b8114611a8957600080fd5b50565b600081359050611a9b81611a75565b92915050565b60008060408385031215611ab857611ab7611a03565b5b6000611ac685828601611a56565b9250506020611ad785828601611a8c565b9150509250929050565b611aea81611a6b565b82525050565b6000602082019050611b056000830184611ae1565b92915050565b60007fffffffff0000000000000000000000000000000000000000000000000000000082169050919050565b611b4081611b0b565b8114611b4b57600080fd5b50565b600081359050611b5d81611b37565b92915050565b600060208284031215611b7957611b78611a03565b5b6000611b8784828501611b4e565b91505092915050565b60008115159050919050565b611ba581611b90565b82525050565b6000602082019050611bc06000830184611b9c565b92915050565b600080fd5b600080fd5b6000601f19601f8301169050919050565b7f4e487b7100000000000000000000000000000000000000000000000000000000600052604160045260246000fd5b611c1982611bd0565b810181811067ffffffffffffffff82111715611c3857611c37611be1565b5b80604052505050565b6000611c4b6119f9565b9050611c578282611c10565b919050565b600067ffffffffffffffff821115611c7757611c76611be1565b5b611c8082611bd0565b9050602081019050919050565b82818337600083830152505050565b6000611caf611caa84611c5c565b611c41565b905082815260208101848484011115611ccb57611cca611bcb565b5b611cd6848285611c8d565b509392505050565b600082601f830112611cf357611cf2611bc6565b5b8135611d03848260208601611c9c565b91505092915050565b600060208284031215611d2257611d21611a03565b5b600082013567ffffffffffffffff811115611d4057611d3f611a08565b5b611d4c84828501611cde565b91505092915050565b600060208284031215611d6b57611d6a611a03565b5b6000611d7984828501611a8c565b91505092915050565b600081519050919050565b600082825260208201905092915050565b60005b83811015611dbc578082015181840152602081019050611da1565b60008484015250505050565b6000611dd382611d82565b611ddd8185611d8d565b9350611ded818560208601611d9e565b611df681611bd0565b840191505092915050565b60006020820190508181036000830152611e1b8184611dc8565b905092915050565b6000819050919050565b611e3681611e23565b8114611e4157600080fd5b50565b600081359050611e5381611e2d565b92915050565b600060208284031215611e6f57611e6e611a03565b5b6000611e7d84828501611e44565b91505092915050565b611e8f81611e23565b82525050565b6000602082019050611eaa6000830184611e86565b92915050565b600067ffffffffffffffff821115611ecb57611eca611be1565b5b602082029050602081019050919050565b600080fd5b6000611ef4611eef84611eb0565b611c41565b90508083825260208201905060208402830185811115611f1757611f16611edc565b5b835b81811015611f405780611f2c8882611a8c565b845260208401935050602081019050611f19565b5050509392505050565b600082601f830112611f5f57611f5e611bc6565b5b8135611f6f848260208601611ee1565b91505092915050565b600067ffffffffffffffff821115611f9357611f92611be1565b5b611f9c82611bd0565b9050602081019050919050565b6000611fbc611fb784611f78565b611c41565b905082815260208101848484011115611fd857611fd7611bcb565b5b611fe3848285611c8d565b509392505050565b600082601f83011261200057611fff611bc6565b5b8135612010848260208601611fa9565b91505092915050565b600080600080600060a0868803121561203557612034611a03565b5b600061204388828901611a56565b955050602061205488828901611a56565b945050604086013567ffffffffffffffff81111561207557612074611a08565b5b61208188828901611f4a565b935050606086013567ffffffffffffffff8111156120a2576120a1611a08565b5b6120ae88828901611f4a565b925050608086013567ffffffffffffffff8111156120cf576120ce611a08565b5b6120db88828901611feb565b9150509295509295909350565b600080604083850312156120ff576120fe611a03565b5b600061210d85828601611e44565b925050602061211e85828601611a56565b9150509250929050565b600067ffffffffffffffff82111561214357612142611be1565b5b602082029050602081019050919050565b600061216761216284612128565b611c41565b9050808382526020820190506020840283018581111561218a57612189611edc565b5b835b818110156121b3578061219f8882611a56565b84526020840193505060208101905061218c565b5050509392505050565b600082601f8301126121d2576121d1611bc6565b5b81356121e2848260208601612154565b91505092915050565b6000806040838503121561220257612201611a03565b5b600083013567ffffffffffffffff8111156122205761221f611a08565b5b61222c858286016121bd565b925050602083013567ffffffffffffffff81111561224d5761224c611a08565b5b61225985828601611f4a565b9150509250929050565b600081519050919050565b600082825260208201905092915050565b6000819050602082019050919050565b61229881611a6b565b82525050565b60006122aa838361228f565b60208301905092915050565b6000602082019050919050565b60006122ce82612263565b6122d8818561226e565b93506122e38361227f565b8060005b838110156123145781516122fb888261229e565b9750612306836122b6565b9250506001810190506122e7565b5085935050505092915050565b6000602082019050818103600083015261233b81846122c3565b905092915050565b6000806000806080858703121561235d5761235c611a03565b5b600061236b87828801611a56565b945050602061237c87828801611a8c565b935050604061238d87828801611a8c565b925050606085013567ffffffffffffffff8111156123ae576123ad611a08565b5b6123ba87828801611feb565b91505092959194509250565b6123cf81611b90565b81146123da57600080fd5b50565b6000813590506123ec816123c6565b92915050565b6000806040838503121561240957612408611a03565b5b600061241785828601611a56565b9250506020612428858286016123dd565b9150509250929050565b6000806000806080858703121561244c5761244b611a03565b5b600061245a87828801611a56565b945050602085013567ffffffffffffffff81111561247b5761247a611a08565b5b61248787828801611f4a565b935050604085013567ffffffffffffffff8111156124a8576124a7611a08565b5b6124b487828801611f4a565b925050606085013567ffffffffffffffff8111156124d5576124d4611a08565b5b6124e187828801611feb565b91505092959194509250565b6000806040838503121561250457612503611a03565b5b600061251285828601611a56565b925050602061252385828601611a56565b9150509250929050565b600080600080600060a0868803121561254957612548611a03565b5b600061255788828901611a56565b955050602061256888828901611a56565b945050604061257988828901611a8c565b935050606061258a88828901611a8c565b925050608086013567ffffffffffffffff8111156125ab576125aa611a08565b5b6125b788828901611feb565b9150509295509295909350565b7f455243313135353a2061646472657373207a65726f206973206e6f742061207660008201527f616c6964206f776e657200000000000000000000000000000000000000000000602082015250565b6000612620602a83611d8d565b915061262b826125c4565b604082019050919050565b6000602082019050818103600083015261264f81612613565b9050919050565b7f4e487b7100000000000000000000000000000000000000000000000000000000600052602260045260246000fd5b6000600282049050600182168061269d57607f821691505b6020821081036126b0576126af612656565b5b50919050565b7f416363657373436f6e74726f6c3a2063616e206f6e6c792072656e6f756e636560008201527f20726f6c657320666f722073656c660000000000000000000000000000000000602082015250565b6000612712602f83611d8d565b915061271d826126b6565b604082019050919050565b6000602082019050818103600083015261274181612705565b9050919050565b7f455243313135353a206163636f756e747320616e6420696473206c656e67746860008201527f206d69736d617463680000000000000000000000000000000000000000000000602082015250565b60006127a4602983611d8d565b91506127af82612748565b604082019050919050565b600060208201905081810360008301526127d381612797565b9050919050565b7f4e487b7100000000000000000000000000000000000000000000000000000000600052603260045260246000fd5b7f4e487b7100000000000000000000000000000000000000000000000000000000600052601160045260246000fd5b600061284382611a6b565b91507fffffffffffffffffffffffffffffffffffffffffffffffffffffffffffffffff820361287557612874612809565b5b600182019050919050565b60008190508160005260206000209050919050565b60006020601f8301049050919050565b600082821b905092915050565b6000600883026128e27fffffffffffffffffffffffffffffffffffffffffffffffffffffffffffffffff826128a5565b6128ec86836128a5565b95508019841693508086168417925050509392505050565b6000819050919050565b600061292961292461291f84611a6b565b612904565b611a6b565b9050919050565b6000819050919050565b6129438361290e565b61295761294f82612930565b8484546128b2565b825550505050565b600090565b61296c61295f565b61297781848461293a565b505050565b5b8181101561299b57612990600082612964565b60018101905061297d565b5050565b601f8211156129e0576129b181612880565b6129ba84612895565b810160208510156129c9578190505b6129dd6129d585612895565b83018261297c565b50505b505050565b600082821c905092915050565b6000612a03600019846008026129e5565b1980831691505092915050565b6000612a1c83836129f2565b9150826002028217905092915050565b612a3582611d82565b67ffffffffffffffff811115612a4e57612a4d611be1565b5b612a588254612685565b612a6382828561299f565b600060209050601f831160018114612a965760008415612a84578287015190505b612a8e8582612a10565b865550612af6565b601f198416612aa486612880565b60005b82811015612acc57848901518255600182019150602085019450602081019050612aa7565b86831015612ae95784890151612ae5601f8916826129f2565b8355505b6001600288020188555050505b505050505050565b7f455243313135353a206d696e7420746f20746865207a65726f2061646472657360008201527f7300000000000000000000000000000000000000000000000000000000000000602082015250565b6000612b5a602183611d8d565b9150612b6582612afe565b604082019050919050565b60006020820190508181036000830152612b8981612b4d565b9050919050565b6000612b9b82611a6b565b9150612ba683611a6b565b9250828201905080821115612bbe57612bbd612809565b5b92915050565b6000604082019050612bd96000830185611ae1565b612be66020830184611ae1565b9392505050565b7f455243313135353a2073657474696e6720617070726f76616c2073746174757360008201527f20666f722073656c660000000000000000000000000000000000000000000000602082015250565b6000612c49602983611d8d565b9150612c5482612bed565b604082019050919050565b60006020820190508181036000830152612c7881612c3c565b9050919050565b7f455243313135353a2069647320616e6420616d6f756e7473206c656e6774682060008201527f6d69736d61746368000000000000000000000000000000000000000000000000602082015250565b6000612cdb602883611d8d565b9150612ce682612c7f565b604082019050919050565b60006020820190508181036000830152612d0a81612cce565b9050919050565b60006040820190508181036000830152612d2b81856122c3565b90508181036020830152612d3f81846122c3565b90509392505050565b600081905092915050565b7f416363657373436f6e74726f6c3a206163636f756e7420000000000000000000600082015250565b6000612d89601783612d48565b9150612d9482612d53565b601782019050919050565b6000612daa82611d82565b612db48185612d48565b9350612dc4818560208601611d9e565b80840191505092915050565b7f206973206d697373696e6720726f6c6520000000000000000000000000000000600082015250565b6000612e06601183612d48565b9150612e1182612dd0565b601182019050919050565b6000612e2782612d7c565b9150612e338285612d9f565b9150612e3e82612df9565b9150612e4a8284612d9f565b91508190509392505050565b612e5f81611a2d565b82525050565b600081519050919050565b600082825260208201905092915050565b6000612e8c82612e65565b612e968185612e70565b9350612ea6818560208601611d9e565b612eaf81611bd0565b840191505092915050565b600060a082019050612ecf6000830188612e56565b612edc6020830187612e56565b612ee96040830186611ae1565b612ef66060830185611ae1565b8181036080830152612f088184612e81565b90509695505050505050565b600081519050612f2381611b37565b92915050565b600060208284031215612f3f57612f3e611a03565b5b6000612f4d84828501612f14565b91505092915050565b60008160e01c9050919050565b600060033d1115612f825760046000803e612f7f600051612f56565b90505b90565b600060443d1061301257612f976119f9565b60043d036004823e80513d602482011167ffffffffffffffff82111715612fbf575050613012565b808201805167ffffffffffffffff811115612fdd5750505050613012565b80602083010160043d038501811115612ffa575050505050613012565b61300982602001850186611c10565b82955050505050505b90565b7f455243313135353a207472616e7366657220746f206e6f6e2d4552433131353560008201527f526563656976657220696d706c656d656e746572000000000000000000000000602082015250565b6000613071603483611d8d565b915061307c82613015565b604082019050919050565b600060208201905081810360008301526130a081613064565b9050919050565b7f455243313135353a204552433131353552656365697665722072656a6563746560008201527f6420746f6b656e73000000000000000000000000000000000000000000000000602082015250565b6000613103602883611d8d565b915061310e826130a7565b604082019050919050565b60006020820190508181036000830152613132816130f6565b9050919050565b600060a08201905061314e6000830188612e56565b61315b6020830187612e56565b818103604083015261316d81866122c3565b9050818103606083015261318181856122c3565b905081810360808301526131958184612e81565b90509695505050505050565b60006131ac82611a6b565b91506131b783611a6b565b92508282026131c581611a6b565b915082820484148315176131dc576131db612809565b5b5092915050565b60006131ee82611a6b565b91506000820361320157613200612809565b5b600182039050919050565b7f537472696e67733a20686578206c656e67746820696e73756666696369656e74600082015250565b6000613242602083611d8d565b915061324d8261320c565b602082019050919050565b6000602082019050818103600083015261327181613235565b905091905056fea26469706673582212200ffde0d65283815c1ce9077b0fd608ff016fc48a3325e4145af7725b841ab70664736f6c63430008130033",
  "linkReferences": {},
  "deployedLinkReferences": {}
}